:10000000B8EF03F00000000079EF03F000000000FB
:0C00100000000000000000009AEF03F068
:10001C000134083609360450085E0550D8A0053C5A
:10002C00095E003601360F0E0C6E013408360936A7
:10003C00045000A006D0085E0550D8A0053C095E0F
:10004C0005D008260550D8B0053C092600360136E7
:10005C000C2EEBD700B006D0045008260550D8B0B3
:08006C00053C0926000012000A
:100074000450000A08E10550000A05E1FF0E006E75
:100084007F0E016E57D00D6A096A086A015000108C
:10009400D8B4000C015005180A6E0ABE0D1E0B6A76
:1000A40005AE05D0041E051E042AD8B4052A01AEE7
:1000B40005D0001E011E002AD8B4012A01500510E3
:1000C4000A6E0ABE10D0A8DF0BB020D00DAE000C13
:1000D400001E011E002AD8B4012A081E091E082A7F
:1000E400D8B4092A000C05AE0DD001BE07D00150CA
:1000F400096E0050086E016A006AE8D7016A006A56
:10010400002A000C011E001E0B2ADDD7082AD8B4D1
:10011400092A0450085CD8A4D9D70550095CD8A48E
:10012400D5D7096A086A002AD8B4012A01AECED705
:060134000000FF0C1200A8
:10013A0000C04FF001C050F04DC004F04EC005F0B1
:10014A004BC000F04CC001F090DF00C051F001C07C
:10015A0052F04DC004F04EC005F04BC000F04CC048
:10016A0001F083DF08C000F009C001F000C053F0BD
:10017A0001C054F0040E006E4FC0E1FF50C0E2FF10
:10018A00510EE96E000EEA6EEECFE6FF0006FCE1C4
:02019A00120051
:10019C000B6A0A6A096A00500402F4CF09F0F3CF23
:1001AC0008F001500502F4CF0BF0F3CF0AF0005029
:1001BC000502F3500926F4500A22E86A0B2201507A
:1001CC000402F3500926F4500A22E86A0B2208C0F4
:1001DC0000F009C001F00AC002F00BC003F01200DD
:1001EC00086A096A100E0C6E013408360936045080
:1001FC00085E0550D8A0053C095ED8B007D0045065
:10020C0008260550D8B0053C0926D8900036013692
:06021C000C2EEAD71200CF
:100222008992899489864BC08BFF8996210E0D6E27
:060232000D2EFED71200A4
:100238008982899489864BC08BFF8996210E0D6E21
:060248000D2EFED712008E
:10024E00020E4B6EE7DF1C6A080E1C5C15E21C509A
:10025E003F24E96E000E4020EA6EEECF00F000C0A3
:10026E001DF000C04BF0E1DF070E1C5C03E2060E32
:0A027E004B6ED0DF1C2AE8D71200F7
:0A028800246AF088F286006A120072
:10029200466A40C000F0000E016EB90E046E000EF8
:1002A200056E7BDF00C044F001C045F0640E046EB1
:1002B200000E056E9ADF00C044F001C045F000C098
:1002C2004BF001C04CF0640E4D6E000E4E6E470EA8
:1002D200006E000E016E30DF040E006E1E0EE16E27
:1002E200000EE26E470EE96E000EEA6EEECFE6FFFA
:1002F2000006FCE11EC022F0640E1E02F3CF00F0E5
:10030200F4CF01F00050445C006E01504558016E7C
:1003120000C044F001C045F000C04BF001C04CF0F9
:100322000A0E4D6E000E4E6E470E006E000E016EEE
:1003320003DF040E006E260EE16E000EE26E470E23
:10034200E96E000EEA6EEECFE6FF0006FCE126C083
:100352002AF028C025F044D0060E4124E16E000E9A
:100362004220E26E550EE66E070E4124E16E000E4B
:100372004220E26E440EE66E3FD0060E4124E16E4C
:10038200000E4220E26E530EE66E070E4124E16E2D
:10039200000E4220E26E4D0EE66E2ED0060E412475
:1003A200E16E000E4220E26E4E0EE66E070E412412
:1003B200E16E000E4220E26E4F0EE66E1DD0060E7A
:1003C2004124E16E000E4220E26E480EE66E070EF8
:1003D2004124E16E000E4220E26E490EE66E0CD020
:1003E2003F50000AB9E03F50010AC7E03F50020AFD
:1003F200D5E03F50030AE3E0030E4124E16E000E14
:100402004220E26EDF0EE66E040E4124E16E000E23
:100412004220E26E430EE66E1BB209D0050E412465
:10042200E16E000E4220E26E200EE66E08D0050E4E
:100432004124E16E000E4220E26EFD0EE66E1BA428
:1004420008D0050E4124E16E000E4220E26E230E1A
:10045200E66E466A030E465CD8B08ED009D022C042
:1004620043F00FD02AC043F00CD025C043F009D08E
:100472004650000AF4E04650010AF4E04650020AEF
:10048200F4E05AD046504124E16E000E4220E26E62
:10049200300EE66E6FD046504124E16E000E4220CF
:1004A200E26E310EE66E66D046504124E16E000ED9
:1004B2004220E26E320EE66E5DD046504124E16E7D
:1004C200000E4220E26E330EE66E54D046504124B6
:1004D200E16E000E4220E26E340EE66E4BD04650C4
:1004E2004124E16E000E4220E26E350EE66E42D0ED
:1004F20046504124E16E000E4220E26E360EE66E58
:1005020039D046504124E16E000E4220E26E370E91
:10051200E66E30D046504124E16E000E4220E26E7B
:10052200380EE66E27D046504124E16E000E42207E
:10053200E26E390EE66E1ED04350000AA3E043502D
:10054200010AA9E04350020AAFE04350030AB5E0B2
:100552004350040ABBE04350050AC1E04350060A77
:10056200C7E04350070ACDE04350080AD3E04350A6
:0C057200090AD9E0462A6ED7006A120080
:10057E00A6A202D00000FCD7A69C3FC0A9FF40C097
:10058E00A8FFA69EA684F2CF00F0F29E550EA76E8F
:10059E00AA0EA76EA68200BE02D0F29E01D0F28EE7
:0E05AE00A694A1B802D00000FCD7A1981200BC
:1005BC00A69C3FC0A9FFA69EA680A8CF00F0120063
:0C05CC003DC03FF0F5DF00C03EF0120023
:1005D8000900F5CFE6FF0006FBE10106F9E112008C
:1005E800030E0B6E8A0E0C6E550E0D6E0D2EFED779
:1005F8000C2EFCD70B2EFAD70000000081AC0ED0D1
:100608001BA00BD03CC03FF023C040F0B4DF1B90D0
:10061800CD909D909E901B921B8410D01B701BA0A8
:1006280006D0CF6ACE6A9E909D80CD8007D0CD90AF
:100638009D909E90CF6ACE6A1B921B94240E3F6EAB
:08064800000E406E1DDE1200E1
:100650001BB00CD03C5203E1030E3C6E01D03C06B3
:100660003CC03FF0ABDF00C023F013D0050E235C8D
:10067000006E00C023F03CC03FF000C040F0320EDE
:10068000416E000E426E05DE320E3F6E000E406E71
:10069000DEDD24C03FF0000E406EF6DD3CC000F011
:0206A000120046
:1006A2001BB00BD03C2A3C500308D8A03C6A3CC08B
:1006B2003FF083DF00C023F013D0050E2324006E29
:1006C20000C023F03CC03FF000C040F0320E416E4B
:1006D200000E426EDDDD320E3F6E000E406EB6DD64
:1006E20024C03FF0000E406ECEDD3CC000F0120090
:1006F2000CC01AF00DC019F0F296030E0C6E970E94
:100702000D6E0D2EFED70C2EFCD70000000081AE20
:1007120002D0010E246E81AA02D0020E246E81AC98
:1007220002D0030E246EF2901AC00CF019C00DF024
:020732001100B4
:1007340000C018F0156ED8CF16F0E0CF17F0F0987F
:100744009EA007D00A0E3B5C02E23B2A02D01B7239
:100754003B6AF0B21B76F0929E901750E06E1650F2
:0C076400D86E153A153818C000F01000CF
:10077000010E926EE60E936E946A806A816A826AB6
:10078000F26AD08EF28EF28CF19EF180010EC26E72
:100790008E0EC16E9D9CF188F09EB00ECD6E9F9026
:1007A000F290F0929E90F286F0889D801B963A6AB5
:1007B0003C6A246A1B901B943B6A1B921C6A2F6A3A
:1007C0003D6A23C03EF002DF1C6A030E1C5C28E277
:1007D000880E306E020E316E30C000F031C001F074
:1007E00001320032019E01320032019E00C030F021
:1007F00001C031F02B0EE16E000EE26E1C50E126BE
:10080000D8B0E22A00C0E6FF030E0C6E970E0D6E04
:100810000D2EFED70C2EFCD7000000001C2AD5D7C9
:100820002C502B24006E016A000E01222D50002650
:10083000000E0122030E046E000E056E1BDC00C0CC
:100840002EF012D0230E3D6E000E3E6E2ADF15D024
:10085000230E3D6E000E3E6EFBDE0FD0240E3D6E6D
:10086000000E3E6EC1DE09D02450010AEBE0245098
:10087000020AEEE02450030AF1E0F0A21ED01BA60B
:100880000BD01BB009D03C5202E03CC03AF03C6AAD
:100890003D6A23C03EF09ADE1BB609D01BB007D0DC
:1008A0003AC03CF03AC03DF023C03EF08FDEF092FB
:1008B00024C03FF0000E406EE7DC1BA00FD03CC010
:1008C0003FF023C040F0320E416E000E426EE1DC7C
:1008D000320E3F6E000E406EBADC0ED03CC03FF0D0
:1008E0002EC040F0320E416E000E426ED2DC320E4F
:1008F0003F6E000E406EABDC23502E5C02E2818620
:0809000001D0819661D7FFD7F9
:020000040030CA
:0D000100210A0EFF0181FF0FC00FE00F402C
:0200000400F00A
:100000005197A2BDFFFFFFFFFFFFFFFFFFFFFFFFB5
:10001000FFFFFFFFFFFFFFFFFFFFFFFFFFFFFFFFF0
:10002000FFFFFFFFFFFFFFFFFFFFFFFFFFFFFFFFE0
:10003000FFFFFFFFFFFFFFFFFFFFFFFFFFFFFFFFD0
:10004000FFFFFFFFFFFFFFFFFFFFFFFFFFFFFFFFC0
:10005000FFFFFFFFFFFFFFFFFFFFFFFFFFFFFFFFB0
:10006000FFFFFFFFFFFFFFFFFFFFFFFFFFFFFFFFA0
:10007000FFFFFFFFFFFFFFFFFFFFFFFFFFFFFFFF90
:10008000FFFFFFFFFFFFFFFFFFFFFFFFFFFFFFFF80
:10009000FFFFFFFFFFFFFFFFFFFFFFFFFFFFFFFF70
:1000A000FFFFFFFFFFFFFFFFFFFFFFFFFFFFFFFF60
:1000B000FFFFFFFFFFFFFFFFFFFFFFFFFFFFFFFF50
:1000C000FFFFFFFFFFFFFFFFFFFFFFFFFFFFFFFF40
:1000D000FFFFFFFFFFFFFFFFFFFFFFFFFFFFFFFF30
:1000E000FFFFFFFFFFFFFFFFFFFFFFFFFFFFFFFF20
:1000F000FFFFFFFFFFFFFFFFFFFFFFFFFFFFFFFF10
:00000001FF

